:1000000012C0189518951895189518951895189563
:100010001895189518951895189518951895189578
:100020001895189518958FE58DBFC0E4E8E34E2E1E
:1000300084E08EBFD4E0F4E05F2EEEEFF3E0A0E6C4
:10004000B0E0A89584B7082E877F84BF88E1992700
:1000500081BD91BD88278D933197E9F7EDD1662455
:10006000A2E6B0E0E6ECFAE097D269D0D6D0E9D0CB
:10007000D7D0A4E6B0E0BA93AA935A924A9280E00D
:1000800090E0A42DB52D8D939C9382E063D17FD019
:10009000249682E05BD1A6E6B0E0BA93AA935A9286
:1000A0004A9281E090E0A42DB52D8D939C9382E03F
:1000B00051D159D0249682E049D1B0D0E8ECFAE091
:1000C00099D1A2E6B0E090D19BD1E2EDFAE092D1D5
:1000D000A0E2B4E0E4E6F0E029D484D1E6EDFAE071
:1000E00089D1A0E2B4E0E6E6F0E020D47BD1E2E6FC
:1000F000F0E0A8E6B0E076D4A8E6B0E06CD1EEED92
:10010000FAE04AD2A8E6B0E066D1E4E6F0E00ED428
:10011000A8E6B0E060D1E0EEFAE03ED2A8E6B0E0BA
:100120005AD1E6E6F0E002D4B6D08FD084E190E078
:1001300024D28BD0B2D0E1E0F0E075D19ACF83E841
:1001400086B980E087B9089507B1007FA881B98199
:100150008C9190E0890F082707B923D2AA81BB812F
:100160008D939C93089507B1007FA881B9818C91EC
:1001700090E0890F082707B914D2082F192F42E001
:1001800050E00FD1AA81BB814D935C93089507B1D4
:10019000007FA881B9818C9190E0890F082707B969
:1001A00000D2A1EAB0E08D939C93EAEBFAE091D300
:1001B000E1EAF0E0D190E080FF2400275DD2FED29A
:1001C000EDE0F0E0ADE9B0E012D4EEEBFAE081D37F
:1001D000EDE9F0E02DD29CD2EDE0F0E0ADE9B0E049
:1001E00006D4E2ECFAE075D3EDE9F0E021D2E6D2F4
:1001F000EDE0F0E0ADE9B0E0FAD3EDE9F0E054D4A1
:10020000EDE0F0E0ADE9B0E0F2D3EDE9F0E0D2D11D
:10021000AA81BB81DD92EC9208950895F3D00895F0
:10022000F1D08FE713E0FDD0E2EEFAE0E3D08FEB00
:1002300015E0F7D0EEEEFAE0DDD0E1E0F0E0F3D04B
:100240000895899A919A8A9A0895A3EAB0E0BA9398
:10025000AA93A8E6B0E0BA93AA9321D02496A3EA81
:10026000B0E08C91A5EAB0E08D9388278C93E6EFFF
:10027000FAE06CD1EAEFFAE069D1A8E6B0E074D117
:10028000ECEFFAE063D1A5EAB0E06ED1E6EFFAE078
:100290005DD164D10895929A08959298089580E06E
:1002A00090E0A8EAB0E08D939C9381E08093AA004F
:1002B000A881B981B1D3482F0091AA00041710F08A
:1002C00009F039C08091AA00E881F98101E00A9320
:1002D000ABEAB0E092D3A8EAB0E00D911C910F9385
:1002E0001F93ABEAB0E08C91482F55271F910F91D7
:1002F000040F151FA8EAB0E00D931C93A8EAB0E024
:100300000D911C91043650E0150714F009F001C05E
:100310000BC0A8EAB0E00D911C9144E650E021D05A
:10032000A8EAB0E00D931C93AAEAB0E08C918F5F2D
:100330008C9308F4BDCFA8EAB0E08D919C91AA817E
:10034000BB818D939C930895F894FFCF481A88271A
:10035000580A0895480E8827581E089500FC10D0AA
:10036000089503D01ED001F8F9CF0024E89457FF78
:1003700002C009D0689400F80BD010F80124089549
:1003800002D009D00895509540954F5F5F4F089572
:10039000E89417FF0895009510950F5F1F4F68941C
:1003A0000895352F242FE894452B11F4689408956F
:1003B000512F402F0027112780E1440F551F001FA8
:1003C000111F021B130B416018F4020F131F4E7F05
:1003D0008A9599F708958F938D918823E9F711975E
:1003E0008F910895A0E2B4E08D91882311F066D03A
:1003F000FBCF08956AD2802D11F060D0FBCF089515
:1004000080EC62C081E060D014D080E85DC08FE7EE
:10041000213039F08FEB223021F08FE8233009F0C2
:100420008FEC810F51C088EE93E0A7D03197D9F7B8
:10043000089583E09927A1C08AEF90E09ED0B89AF2
:10044000B99ABA9ABB9ABC9ABD9AC59885E090E0D1
:1004500094D0C498C098C198C29AC39AC49AEF9392
:10046000FF93E5E1F0E050D0FF91EF91C49882D086
:10047000C49AEF93FF93E5E1F0E046D0FF91EF914E
:10048000C49878D0C49AEF93FF93E5E1F0E03CD0B4
:10049000FF91EF91C4986ED0C398C49AEF93FF93E5
:1004A000E5E1F0E031D0FF91EF91C49863D088E2AC
:1004B0000BD08EE009D086E007D00895C59A8295CA
:1004C00005D004D057D00895C598F9CF859510F47C
:1004D000C39A01C0C398859510F4C29A01C0C2980E
:1004E000859510F4C19A01C0C198859510F4C09A01
:1004F00001C0C098C49AEF93FF93E5E1F0E004D007
:10050000FF91EF91C49808953197F1F70895689499
:1005100062F80895E89462F808958F939F9383E6B4
:1005200090E00197F1F79F918F91089580952AE0CF
:1005300090E0089410F4919802C0919A0000EDDFC9
:10054000ECDF969587952A95A9F70895C895802D93
:10055000882319F0EBDF3196F9CF08958DE0E6DFBF
:100560008AE0E4CFA0E2B4E08D91882311F0DEDFD1
:10057000FBCF089581E090E000C0EF93FF93EE275A
:10058000E82BE92B31F0EAEFF0E03197F1F7019732
:10059000D1F7FF91EF91089598D10D920020E1F7E6
:1005A0000895369A3699FECF369A3699FECF84B1A1
:1005B00095B108953DD0992711278F2D880F80E898
:1005C000F82A802F881F08F41FEF41F08F57082F5B
:1005D00007FD04C0003240F08FEF01C08827982F3C
:1005E000D82EE82EF82E09C08FE1801B082FF69434
:1005F000E794D79497950A95D1F7112351F09095E8
:10060000D094E094F09481E0980F8827D81EE81EDB
:10061000F81E0F2DFE2CED2CD92E0895D094E094C9
:10062000F09491E0D90E9927E91EF91E10950895CE
:10063000D190E190F19001910895219131914191F2
:1006400051910895102F90E8FF0C001F0927990F72
:10065000F7941078652F90E8440F551F5927990F8C
:100660004795607800380895FF0C90E89027110FA7
:100670009795F794092F0895102FBD2CDE2CEF2CA1
:10068000F02E11234AF4B094D094E094F0949FEFAC
:10069000B91AD90AE90AF90A0EE1FF2039F4FE2C49
:1006A000ED2CDB2CBB240850C2F766C032F00A9553
:1006B000BB0CDD1CEE1CFF1CF9CF01D0D5CFB7FE63
:1006C000089590E8B91611F4D0FE08959FEFD91A55
:1006D000E90AF90A09F403950895502F2D2D3E2DAE
:1006E0004F2D612F08952DEC3CEC4CEC5DE366271B
:1006F0000FC09EDFF2DFDD24EE2490E8F92E0FE339
:1007000007C09BDF05C02227332740E251E466275C
:10071000552351F1002381F195DF71F1162700581F
:1007200050580894050B18F407FD03C025C007FDB9
:1007300023C0469537952795F694E794D79422D011
:10074000FF202AF0DD0CEE1CFF1C015073F09D2DE4
:10075000969548F0DD203AF4EE202AF491E0D90E87
:100760009927E91EF91E80CF07C09FE7092FF92AB4
:100770009FEFD92EE92E0895DD24EE24FF240027D3
:10078000112708959F929924AA24BB2488E1D216A8
:10079000E306F40628F0D21AE30AF40A089401C02A
:1007A0008894991CAA1CBB1CDD0CEE1CFF1C8A95AE
:1007B00071F7D92CEA2CFB2C9F90089543DFE1F2CE
:1007C0005038D1F21627005850580894051F12F4DB
:1007D00018F4CBCF08F0D0CF0AD0FF202AF0BB0C02
:1007E000DD1CEE1CFF1C40CF0F5FFBF13DCF9F9245
:1007F0009924AA24BB24992788E1990CAA1CBB1C24
:10080000DD1CEE1CFF1C30F4920EA31EB41ED91E7C
:10081000E91EF91E8A9589F79F9008950AF045D040
:1008200023CF5FE322273327442701C006DF0ADFF7
:100830005038B1F3003899F3902F951B8BF312F4D5
:1008400034D0FACF983118F0222733274427983034
:1008500028F0232F342F44279850F9CF992329F0DB
:100860004695379527959A95D9F7912F962742F077
:1008700014D0B0F6F794E794D7940F5F8BF675CF4A
:1008800010D051F008F4CADEFF2052F2DD0CEE1C4D
:10089000FF1C0150CBF769CF6FCFD20EE31EF41EC1
:1008A0000895D21AE30AF40A0895DF92EF92FF92B4
:1008B0000F931F93D22EE32EF42E052F162F6F9138
:1008C0005F914F913F912F910895C89531960020E7
:1008D0000895FBDF202DF9DF302DF7DF402DF5DF08
:1008E000502D089507FB00680EF40F7757FB5068F2
:1008F0000EF45F7707FD02C057FF05C0D216E3066E
:10090000F406050708952D153E054F055007089577
:10091000000F111F221F331F089500951095209579
:1009200030950F5F1F4F2F4F3F4F0895019110815A
:100930000EC001911191219130810BC00191108164
:1009400017FF05C03FEF2FEF04C0008111272227BA
:10095000332737FF03C0E1DF8DE28D93CF93DF9321
:10096000CF92DF92EF92AA24BB24CC24DD24EE2484
:1009700040E2CAE0DD2755E093E38881890F87FDD7
:100980009F7083FD907F891B89935A95A9F7C0DFDB
:10099000AA1CBB1CCC1CDD1CEE1C4A9551F7E8942C
:1009A000EFE0FF2782910ED0EB30E0F71EF0689465
:1009B0008A2D0CD088278D93EF90DF90CF90DF9118
:1009C000CF910895982F829501D0892F8F70805DE7
:1009D00026F0803309F4089568948D93089588274C
:1009E0008D93089581918D938823E1F7089594E084
:1009F00081918D939A95E1F70895099191919923A9
:100A000051F08A95D9F7319781918D930A9519F014
:100A10008823D1F70895E3CF8FEF83959D91992394
:100A2000E1F7089505DE80E003C002DE802F8078C4
:100A3000882321F0DF92EF92FF920F938F9302DED3
:100A4000802F839512F498DE1BC080958A95885E6E
:100A50000AF415C088501AF40CD0D92210C0DD2435
:100A600088501AF406D0E9220AC0EE2402D0F922F6
:100A700006C09FEF8770990F8A95EAF70895F4DD15
:100A80008F918823D9F35F914F913F912F910F93CD
:100A900029DF0F9199F390F302D05068C8CE5FE33D
:100AA00040E8332722270895C3DD0F930F77B9DE7F
:100AB000BDDF8F918078082B08950000A04000C012
:100AC0007F440000C84232004E6F64652049443ABA
:100AD0002000543A2000204320204C3A20002500DA
:100AE0002D0057534E2050726F6A6563740057652E
:0E0AF0006C636F6D6500555500003A003B00C9
:00000001FF
