:1000000012C0189518951895189518951895189563
:100010001895189518951895189518951895189578
:100020001895189518958FE58DBFC0E4E8E34E2E1E
:1000300084E08EBFD4E0F4E05F2EEEEFF3E0A0E6C4
:10004000B0E0A89584B7082E877F84BF88E1992700
:1000500081BD91BD88278D933197E9F7F6D366244A
:1000600083E886B980E487B9379A8FEF81BB889897
:100070008EE190E0AEEAB0E08D939C9388EE93E041
:10008000A4EBB0E08D939C938898D7D3E2E6FFE091
:10009000CED355D4A6EBB0E08D9388278C9381E026
:1000A00073D4A6EBB0E08C91A881B9818D93882799
:1000B0008C93A881B981EAE6FFE0D0D60FB681E043
:1000C000481A8827580A22960FBE09F075C0A8EB77
:1000D000B0E088278C9380E090E0A0EAB0E08D93B8
:1000E0009C93A6EBB0E0ECE6FFE0B8D609F42AC09A
:1000F0002AD4A6EBB0E08C93A0EAB0E00D911C915D
:10010000023350E0150714F009F001C001C01AC015
:10011000A6EBB0E0ECE6FFE0A1D609F406C0E6EB02
:10012000F0E0A8EBB0E074D379D6A0EAB0E00D918E
:100130001C9141E050E0040F151FA0EAB0E00D93C0
:100140001C93CFCF00D4A6EBB0E08C93ADEEB0E023
:10015000BA93AA93A8EBB0E0BA93AA93B6D2249626
:10016000ADEEB0E04D915C91A6EBB0E08C91082F24
:1001700011270417150709F00FC0E8EBF0E0A2E61D
:10018000B0E09DE208E036E07ED6A8E9B0E02D932D
:1001900088278C9312D010C0A6EBB0E08C91082F6A
:1001A000A0E2B4E0E0E1F0E0BDD539D3A0E2B4E0F4
:1001B000EDEEF0E0B0D533D36CCF82E090E0A0E676
:1001C000B0E08D939C93A0E6B0E00D911C910530BA
:1001D00050E0150714F009F017C180E090E0A0EAA4
:1001E000B0E08D939C93A0E6B0E00D911C9142E0AD
:1001F00050E0041B150BABEEB0E00D931C9307B160
:10020000007FABEEB0E08C9190E0890F082707B932
:10021000CBD3AEE9B0E08D939C93EEE5FFE02CD517
:10022000EEE9F0E0D190E0808FEFE7FE8827F82E2E
:10023000082F25D470D4EDE0F0E0AAE9B0E0F3D5C2
:10024000EAE9F0E083D6EDE0F0E0B7D3A0E6B0E075
:10025000AD90BC90A0EAB0E0AA0CBB1CAA0DBB1DDF
:10026000EE0C000FE794DD92EC92A0E6B0E00D9169
:100270001C9141E050E0041B150BAFEEB0E00D9374
:100280001C93DBD2EEE6FFE0D2D2A0E2B4E0EFEEC8
:10029000F0E041D5C4D2E0E7FFE0C9D2A0E2B4E08B
:1002A000E0E6F0E0A190B080E0EAF0E0AA0CBB1C30
:1002B000EA0DFB1D30D5B3D2E2E7FFE0B8D2A0E6ED
:1002C000B0E00D911C9149E050E064D3A9E5B0E0A5
:1002D000A00FB11FA6D2E4E7FFE0A9D2A4EBB0E0E3
:1002E0004D915C91A0EAB0E00D911C9104171507A7
:1002F0000CF401C083C0A0EAB0E00D911C9141E074
:1003000050E0040F151FA0EAB0E00D931C93A0E687
:10031000B0E00D911C9149E050E03CD3A9E5B0E07C
:10032000A00FB11F49D5A0E1B0E04D915D916D9155
:100330007C91A0E6B0E0AD90BC90A0EAB0E0AA0C41
:10034000BB1CAA0DBB1D0D911D9117FB1EF42FEFB9
:100350003FEF02C022273327C3D40CF401C011C0E1
:100360005A924A92AFEEB0E08D919C91A42DB52D9A
:100370008D939C9382E002D248D0229682E0FAD1FB
:100380003CC0A0E6B0E00D911C9149E050E002D3E2
:10039000A9E5B0E0A00FB11F0FD5A0E1B0E04D91ED
:1003A0005D916D917C91A0E6B0E0AD90BC90A0EA2B
:1003B000B0E0AA0CBB1CAA0DBB1D0D911D9117FB33
:1003C0001EF42FEF3FEF02C02227332789D414F009
:1003D00009F001C011C05A924A92AFEEB0E08D917F
:1003E0009C91A42DB52D8D939C9382E0C7D1BDD057
:1003F000229682E0BFD101C003C001C001C0F3CE8C
:10040000A0E6B0E0BFD1DFCE0895A881B9810D91FB
:100410001C91013050E0150709F00DC083E090E019
:10042000A0EBB0E08D939C9384E090E0A2EBB0E071
:100430008D939C9335C0023050E0150709F00DC034
:1004400084E090E0A0EBB0E08D939C9385E090E099
:10045000A2EBB0E08D939C9323C0033050E01507CE
:1004600009F00DC086E090E0A0EBB0E08D939C9386
:1004700087E090E0A2EBB0E08D939C9311C0043034
:1004800050E0150709F00CC086E090E0A0EBB0E06A
:100490008D939C9387E090E0A2EBB0E08D939C93CA
:1004A000A0EBB0E08C91A2E3B0E00FD404D48C9127
:1004B00089238C93A2EBB0E08C91A2E3B0E005D449
:1004C000FAD38C9189238C93AEEAB0E08D919C9104
:1004D0004CD2A0EBB0E08C91A2E3B0E0F6D3EBD32A
:1004E0009C91982B9C93A2EBB0E08C91A2E3B0E09E
:1004F000ECD3E1D38C9189238C93AEEAB0E08D915B
:100500009C9133D2A0EBB0E08C91A2E3B0E0DDD3BC
:10051000D2D38C9189238C93A2EBB0E08C91A2E38F
:10052000B0E0D3D3C8D39C91982B9C93AEEAB0E0B3
:100530008D919C911AD2A0EBB0E08C91A2E3B0E037
:10054000C4D3B9D39C91982B9C93A2EBB0E08C912F
:10055000A2E3B0E0BAD3AFD39C91982B9C93AEEAC0
:10056000B0E08D919C9101D20895A881B9810D913F
:100570001C91013050E0150709F00DC083E090E0B8
:10058000A0EBB0E08D939C9384E090E0A2EBB0E010
:100590008D939C9335C0023050E0150709F00DC0D3
:1005A00084E090E0A0EBB0E08D939C9385E090E038
:1005B000A2EBB0E08D939C9323C0033050E015076D
:1005C00009F00DC086E090E0A0EBB0E08D939C9325
:1005D00087E090E0A2EBB0E08D939C9311C00430D3
:1005E00050E0150709F00CC086E090E0A0EBB0E009
:1005F0008D939C9387E090E0A2EBB0E08D939C9369
:10060000A0EBB0E08C91A2E3B0E05FD354D39C9117
:10061000982B9C93A2EBB0E08C91A2E3B0E055D371
:100620004AD39C91982B9C93AEEAB0E08D919C911B
:100630009CD1A0EBB0E08C91A2E3B0E046D33BD3D9
:100640008C9189238C93A2EBB0E08C91A2E3B0E073
:100650003CD331D39C91982B9C93AEEAB0E08D9122
:100660009C9183D1A0EBB0E08C91A2E3B0E02DD3BC
:1006700022D39C91982B9C93A2EBB0E08C91A2E3A7
:10068000B0E023D318D38C9189238C93AEEAB0E0E9
:100690008D919C916AD1A0EBB0E08C91A2E3B0E087
:1006A00014D309D38C9189238C93A2EBB0E08C9165
:1006B000A2E3B0E00AD3FFD28C9189238C93AEEAF7
:1006C000B0E08D919C9151D1089580E090E0A1EF30
:1006D000B0E08D939C9381E08093F400A881B98170
:1006E000B7D3482F0091F400041710F009F039C077
:1006F0008091F400E8EBF0E001E00A93A5EFB0E0B0
:1007000098D3A1EFB0E00D911C910F931F93A5EF2B
:10071000B0E08C91482F55271F910F91040F151FA2
:10072000A1EFB0E00D931C93A1EFB0E00D911C91EF
:10073000043650E0150714F009F001C00BC0A1EF1A
:10074000B0E00D911C9144E650E028D0A1EFB0E05C
:100750000D931C93A4EFB0E08C918F5F8C9308F401
:10076000BDCFA1EFB0E08D919C91AA81BB818D930B
:100770009C930895481A8827580A0895480E882798
:10078000581E0895ED91FC91EF5FFF4FFC93EE939F
:10079000089508D0FFD000FC10D0089503D01ED0DB
:1007A00001F8F9CF0024E89457FF02C009D06894FB
:1007B00000F80BD010F80124089502D009D0089554
:1007C000509540954F5F5F4F0895E89417FF089547
:1007D000009510950F5F1F4F68940895352F242FB3
:1007E000E894452B11F468940895512F402F002769
:1007F000112780E1440F551F001F111F021B130B0F
:10080000416018F4020F131F4E7F8A9599F70895DF
:100810008F938D918823E9F711978F910895A0E226
:10082000B4E08D91882311F052D0FBCF089520D2EF
:10083000802D11F04CD0FBCF089581E04ED002D036
:1008400080E84BC083E0992790C08AEF90E08DD07C
:10085000B89AB99ABA9ABB9ABC9ABD9AC59885E0DB
:1008600090E083D0C498C098C198C29AC39AC49AA1
:10087000EF93FF93E5E1F0E050D0FF91EF91C49842
:1008800071D0C49AEF93FF93E5E1F0E046D0FF9179
:10089000EF91C49867D0C49AEF93FF93E5E1F0E03D
:1008A0003CD0FF91EF91C4985DD0C398C49AEF9368
:1008B000FF93E5E1F0E031D0FF91EF91C49852D081
:1008C00088E20BD08EE009D086E007D00895C59A63
:1008D000829505D004D046D00895C598F9CF859566
:1008E00010F4C39A01C0C398859510F4C29A01C050
:1008F000C298859510F4C19A01C0C198859510F4ED
:10090000C09A01C0C098C49AEF93FF93E5E1F0E06C
:1009100004D0FF91EF91C49808953197F1F70895AD
:10092000689462F80895E89462F808958F939F930D
:1009300083E690E00197F1F79F918F910895809B56
:1009400002C08827089529E08099FECFEFDFEEDF0F
:10095000EDDF8894809908942A9519F087959795EA
:10096000F6CF089581E090E000C0EF93FF93EE276B
:10097000E82BE92B31F0EAEFF0E03197F1F701973E
:10098000D1F7FF91EF9108955A924A92480E882725
:10099000581E08950F92B801469F8001479F100D81
:1009A000569F100D0F900895369A3699FECF369ABD
:1009B0003699FECF84B195B108953DD0992711277E
:1009C0008F2D880F80E8F82A802F881F08F41FEFEA
:1009D00041F08F57082F07FD04C0003240F08FEF21
:1009E00001C08827982FD82EE82EF82E09C08FE155
:1009F000801B082FF694E794D79497950A95D1F722
:100A0000112351F09095D094E094F09481E0980FE8
:100A10008827D81EE81EF81E0F2DFE2CED2CD92E8F
:100A20000895D094E094F09491E0D90E9927E91EAE
:100A3000F91E10950895D190E190F19001910895DB
:100A400021913191419151910895102F90E8FF0C1F
:100A5000001F0927990FF7941078652F90E8440F2D
:100A6000551F5927990F4795607800380895FF0C56
:100A700090E89027110F9795F794092F0895102F5C
:100A8000BD2CDE2CEF2CF02E11234AF4B094D09420
:100A9000E094F0949FEFB91AD90AE90AF90A0EE135
:100AA000FF2039F4FE2CED2CDB2CBB240850C2F7C0
:100AB00066C032F00A95BB0CDD1CEE1CFF1CF9CFA2
:100AC00001D0D5CFB7FE089590E8B91611F4D0FE45
:100AD00008959FEFD91AE90AF90A09F403950895D0
:100AE000502F2D2D3E2D4F2D612F08952DEC3CECD8
:100AF0004CEC5DE366270FC09EDFF2DFDD24EE24C1
:100B000090E8F92E0FE307C09BDF05C022273327AB
:100B100040E251E46627552351F1002381F195DF2E
:100B200071F11627005850580894050B18F407FD6A
:100B300003C025C007FD23C0469537952795F69439
:100B4000E794D79422D0FF202AF0DD0CEE1CFF1C86
:100B5000015073F09D2D969548F0DD203AF4EE207B
:100B60002AF491E0D90E9927E91EF91E80CF07C01B
:100B70009FE7092FF92A9FEFD92EE92E0895DD244A
:100B8000EE24FF240027112708959F929924AA2478
:100B9000BB2488E1D216E306F40628F0D21AE30A51
:100BA000F40A089401C08894991CAA1CBB1CDD0C93
:100BB000EE1CFF1C8A9571F7D92CEA2CFB2C9F9018
:100BC00008950AF045D053CF5FE322273327442707
:100BD00001C036DF3ADF5038B1F3003899F3902F77
:100BE000951B8BF312F434D0FACF983118F02227EA
:100BF00033274427983028F0232F342F4427985048
:100C0000F9CF992329F04695379527959A95D9F7E5
:100C1000912F962742F014D0B0F6F794E794D7942A
:100C20000F5F8BF6A5CF10D051F008F4FADEFF204D
:100C300052F2DD0CEE1CFF1C0150CBF799CF9FCF79
:100C4000D20EE31EF41E0895D21AE30AF40A0895A0
:100C5000DF92EF92FF920F931F93D22EE32EF42E8A
:100C6000052F162F6F915F914F913F912F9108950E
:100C7000C895319600200895FBDF202DF9DF302D37
:100C8000F7DF402DF5DF502D089507FB00680EF4C7
:100C90000F7757FB50680EF45F7707FD02C057FFD0
:100CA00005C0D216E306F406050708952D153E0586
:100CB0004F055007089591E0882321F08894991FEB
:100CC0008A95E9F7892F90950895883018F0119644
:100CD0008850FBCF0895040F151F261F371F089556
:100CE00004171507260737070895000F111F221F45
:100CF000331F089500951095209530950F5F1F4F75
:100D00002F4F3F4F0895019110810EC00191119115
:100D1000219130810BC00191108117FF05C03FEF79
:100D20002FEF04C0008111272227332737FF03C08C
:100D3000E1DF8DE28D93CF93DF93CF92DF92EF923D
:100D4000AA24BB24CC24DD24EE2440E2CAE0DD2723
:100D500055E093E38881890F87FD9F7083FD907F25
:100D6000891B89935A95A9F7C0DFAA1CBB1CCC1C10
:100D7000DD1CEE1C4A9551F7E894EFE0FF278291C5
:100D80000ED0EB30E0F71EF068948A2D0CD0882747
:100D90008D93EF90DF90CF90DF91CF910895982FB2
:100DA000829501D0892F8F70805D26F0803309F401
:100DB000089568948D9308950027112722273327DB
:100DC0001DD08A3328F4803318F005D015D0F9CF20
:100DD0000EF490CF089580538F93402F512F622FA0
:100DE000732F83DF82DF77DF80DF8F919927080FF2
:100DF000191F291F391F08958D910895E894FCDF6C
:100E00008032E9F38B32D9F38930C9F38D3211F492
:100E10006894F2CF089588278D93089581918D93DA
:100E20008823E1F7089594E081918D939A95E1F7F5
:100E3000089509919191992351F08A95D9F73197A5
:100E400081918D930A9519F08823D1F70895E3CF06
:100E50008FEF83959D919923E1F70895689401C0E0
:100E6000E894AF93BF938D9116F0919102C000DF8B
:100E7000902D891718F011F48823A9F7BF91AF912D
:100E80000895689401C0E8942227102F231709F4CD
:100E900008951EF4EDDE802D01C08191803069F04F
:100EA000891731F08D931A95A1F723951D93EDCFF6
:100EB00001D0EBCF011709F40895239588271395E6
:100EC0008D931A95E9F70895B6DD80E003C0B3DD90
:100ED000802F8078882321F0DF92EF92FF920F938A
:100EE0008F93B3DD802F839512F449DE1BC080956C
:100EF0008A95885E0AF415C088501AF40CD0D9225D
:100F000010C0DD2488501AF406D0E9220AC0EE246D
:100F100002D0F92206C09FEF8770990F8A95EAF7F1
:100F20000895A5DD8F918823D9F35F914F913F916B
:100F30002F910F93AADE0F9199F390F302D050688E
:100F400049CE5FE340E833272227089574DD0F93ED
:100F50000F773ADEBDDF8F918078082B0895A4705B
:100F6000B54057414954494E47002E002C004D00D2
:060F70003A002F002000F2
:00000001FF
